{
  "_format": "hh-sol-artifact-1",
  "contractName": "VaultFactory",
  "sourceName": "contracts/VaultFactory.sol",
  "abi": [
    {
      "inputs": [],
      "stateMutability": "nonpayable",
      "type": "constructor"
    },
    {
      "inputs": [
        {
          "internalType": "address",
          "name": "owner",
          "type": "address"
        }
      ],
      "name": "OwnableInvalidOwner",
      "type": "error"
    },
    {
      "inputs": [
        {
          "internalType": "address",
          "name": "account",
          "type": "address"
        }
      ],
      "name": "OwnableUnauthorizedAccount",
      "type": "error"
    },
    {
      "anonymous": false,
      "inputs": [
        {
          "indexed": true,
          "internalType": "address",
          "name": "previousOwner",
          "type": "address"
        },
        {
          "indexed": true,
          "internalType": "address",
          "name": "newOwner",
          "type": "address"
        }
      ],
      "name": "OwnershipTransferred",
      "type": "event"
    },
    {
      "anonymous": false,
      "inputs": [
        {
          "indexed": true,
          "internalType": "address",
          "name": "token0",
          "type": "address"
        },
        {
          "indexed": true,
          "internalType": "address",
          "name": "token1",
          "type": "address"
        },
        {
          "indexed": false,
          "internalType": "address",
          "name": "vault",
          "type": "address"
        },
        {
          "indexed": false,
          "internalType": "uint256",
          "name": "vaultId",
          "type": "uint256"
        }
      ],
      "name": "VaultCreated",
      "type": "event"
    },
    {
      "inputs": [
        {
          "internalType": "uint256",
          "name": "",
          "type": "uint256"
        }
      ],
      "name": "allVaults",
      "outputs": [
        {
          "internalType": "address",
          "name": "",
          "type": "address"
        }
      ],
      "stateMutability": "view",
      "type": "function"
    },
    {
      "inputs": [],
      "name": "allVaultsLength",
      "outputs": [
        {
          "internalType": "uint256",
          "name": "",
          "type": "uint256"
        }
      ],
      "stateMutability": "view",
      "type": "function"
    },
    {
      "inputs": [
        {
          "internalType": "address",
          "name": "tokenA",
          "type": "address"
        },
        {
          "internalType": "address",
          "name": "tokenB",
          "type": "address"
        }
      ],
      "name": "createVault",
      "outputs": [
        {
          "internalType": "address",
          "name": "vault",
          "type": "address"
        }
      ],
      "stateMutability": "nonpayable",
      "type": "function"
    },
    {
      "inputs": [
        {
          "internalType": "address",
          "name": "",
          "type": "address"
        },
        {
          "internalType": "address",
          "name": "",
          "type": "address"
        }
      ],
      "name": "getVault",
      "outputs": [
        {
          "internalType": "address",
          "name": "",
          "type": "address"
        }
      ],
      "stateMutability": "view",
      "type": "function"
    },
    {
      "inputs": [],
      "name": "owner",
      "outputs": [
        {
          "internalType": "address",
          "name": "",
          "type": "address"
        }
      ],
      "stateMutability": "view",
      "type": "function"
    },
    {
      "inputs": [],
      "name": "renounceOwnership",
      "outputs": [],
      "stateMutability": "nonpayable",
      "type": "function"
    },
    {
      "inputs": [
        {
          "internalType": "address",
          "name": "newOwner",
          "type": "address"
        }
      ],
      "name": "transferOwnership",
      "outputs": [],
      "stateMutability": "nonpayable",
      "type": "function"
    },
    {
      "inputs": [
        {
          "internalType": "address",
          "name": "vault",
          "type": "address"
        },
        {
          "internalType": "address",
          "name": "newOwner",
          "type": "address"
        }
      ],
      "name": "transferVaultOwnership",
      "outputs": [],
      "stateMutability": "nonpayable",
      "type": "function"
    }
  ],
  "bytecode": "0x608060405234801561001057600080fd5b5033600073ffffffffffffffffffffffffffffffffffffffff168173ffffffffffffffffffffffffffffffffffffffff16036100845760006040517f1e4fbdf700000000000000000000000000000000000000000000000000000000815260040161007b919061019e565b60405180910390fd5b6100938161009960201b60201c565b506101b9565b60008060009054906101000a900473ffffffffffffffffffffffffffffffffffffffff169050816000806101000a81548173ffffffffffffffffffffffffffffffffffffffff021916908373ffffffffffffffffffffffffffffffffffffffff1602179055508173ffffffffffffffffffffffffffffffffffffffff168173ffffffffffffffffffffffffffffffffffffffff167f8be0079c531659141344cd1fd0a4f28419497f9722a3daafe3b4186f6b6457e060405160405180910390a35050565b600073ffffffffffffffffffffffffffffffffffffffff82169050919050565b60006101888261015d565b9050919050565b6101988161017d565b82525050565b60006020820190506101b3600083018461018f565b92915050565b61574b806101c86000396000f3fe608060405234801561001057600080fd5b50600436106100885760003560e01c8063bbd7edc51161005b578063bbd7edc514610103578063cc92d31c14610133578063f2fde38b14610163578063fdc10daf1461017f57610088565b80634cd185771461008d578063715018a6146100ab5780638da5cb5b146100b55780639094a91e146100d3575b600080fd5b61009561019b565b6040516100a291906109d5565b60405180910390f35b6100b36101a8565b005b6100bd6101bc565b6040516100ca9190610a31565b60405180910390f35b6100ed60048036038101906100e89190610a7d565b6101e5565b6040516100fa9190610a31565b60405180910390f35b61011d60048036038101906101189190610ad6565b610224565b60405161012a9190610a31565b60405180910390f35b61014d60048036038101906101489190610ad6565b610266565b60405161015a9190610a31565b60405180910390f35b61017d60048036038101906101789190610b16565b61075f565b005b61019960048036038101906101949190610ad6565b6107e5565b005b6000600280549050905090565b6101b061085c565b6101ba60006108e3565b565b60008060009054906101000a900473ffffffffffffffffffffffffffffffffffffffff16905090565b600281815481106101f557600080fd5b906000526020600020016000915054906101000a900473ffffffffffffffffffffffffffffffffffffffff1681565b60016020528160005260406000206020528060005260406000206000915091509054906101000a900473ffffffffffffffffffffffffffffffffffffffff1681565b60008173ffffffffffffffffffffffffffffffffffffffff168373ffffffffffffffffffffffffffffffffffffffff16036102d6576040517f08c379a00000000000000000000000000000000000000000000000000000000081526004016102cd90610ba0565b60405180910390fd5b600073ffffffffffffffffffffffffffffffffffffffff168373ffffffffffffffffffffffffffffffffffffffff16141580156103405750600073ffffffffffffffffffffffffffffffffffffffff168273ffffffffffffffffffffffffffffffffffffffff1614155b61037f576040517f08c379a000000000000000000000000000000000000000000000000000000000815260040161037690610c0c565b60405180910390fd5b6000808373ffffffffffffffffffffffffffffffffffffffff168573ffffffffffffffffffffffffffffffffffffffff16106103bc5783856103bf565b84845b91509150600073ffffffffffffffffffffffffffffffffffffffff16600160008473ffffffffffffffffffffffffffffffffffffffff1673ffffffffffffffffffffffffffffffffffffffff16815260200190815260200160002060008373ffffffffffffffffffffffffffffffffffffffff1673ffffffffffffffffffffffffffffffffffffffff16815260200190815260200160002060009054906101000a900473ffffffffffffffffffffffffffffffffffffffff1673ffffffffffffffffffffffffffffffffffffffff16146104ce576040517f08c379a00000000000000000000000000000000000000000000000000000000081526004016104c590610c78565b60405180910390fd5b81816040516104dc906109af565b6104e7929190610c98565b604051809103906000f080158015610503573d6000803e3d6000fd5b50925082600160008473ffffffffffffffffffffffffffffffffffffffff1673ffffffffffffffffffffffffffffffffffffffff16815260200190815260200160002060008373ffffffffffffffffffffffffffffffffffffffff1673ffffffffffffffffffffffffffffffffffffffff16815260200190815260200160002060006101000a81548173ffffffffffffffffffffffffffffffffffffffff021916908373ffffffffffffffffffffffffffffffffffffffff16021790555082600160008373ffffffffffffffffffffffffffffffffffffffff1673ffffffffffffffffffffffffffffffffffffffff16815260200190815260200160002060008473ffffffffffffffffffffffffffffffffffffffff1673ffffffffffffffffffffffffffffffffffffffff16815260200190815260200160002060006101000a81548173ffffffffffffffffffffffffffffffffffffffff021916908373ffffffffffffffffffffffffffffffffffffffff1602179055506002839080600181540180825580915050600190039060005260206000200160009091909190916101000a81548173ffffffffffffffffffffffffffffffffffffffff021916908373ffffffffffffffffffffffffffffffffffffffff1602179055508073ffffffffffffffffffffffffffffffffffffffff168273ffffffffffffffffffffffffffffffffffffffff167f4dda9a6d0ba03769e9813c47681795a7210f951e6ef31e64772e13b9ea0f14068560016002805490506107419190610cf0565b60405161074f929190610d24565b60405180910390a3505092915050565b61076761085c565b600073ffffffffffffffffffffffffffffffffffffffff168173ffffffffffffffffffffffffffffffffffffffff16036107d95760006040517f1e4fbdf70000000000000000000000000000000000000000000000000000000081526004016107d09190610a31565b60405180910390fd5b6107e2816108e3565b50565b6107ed61085c565b8173ffffffffffffffffffffffffffffffffffffffff1663f2fde38b826040518263ffffffff1660e01b81526004016108269190610a31565b600060405180830381600087803b15801561084057600080fd5b505af1158015610854573d6000803e3d6000fd5b505050505050565b6108646109a7565b73ffffffffffffffffffffffffffffffffffffffff166108826101bc565b73ffffffffffffffffffffffffffffffffffffffff16146108e1576108a56109a7565b6040517f118cdaa70000000000000000000000000000000000000000000000000000000081526004016108d89190610a31565b60405180910390fd5b565b60008060009054906101000a900473ffffffffffffffffffffffffffffffffffffffff169050816000806101000a81548173ffffffffffffffffffffffffffffffffffffffff021916908373ffffffffffffffffffffffffffffffffffffffff1602179055508173ffffffffffffffffffffffffffffffffffffffff168173ffffffffffffffffffffffffffffffffffffffff167f8be0079c531659141344cd1fd0a4f28419497f9722a3daafe3b4186f6b6457e060405160405180910390a35050565b600033905090565b6149c880610d4e83390190565b6000819050919050565b6109cf816109bc565b82525050565b60006020820190506109ea60008301846109c6565b92915050565b600073ffffffffffffffffffffffffffffffffffffffff82169050919050565b6000610a1b826109f0565b9050919050565b610a2b81610a10565b82525050565b6000602082019050610a466000830184610a22565b92915050565b600080fd5b610a5a816109bc565b8114610a6557600080fd5b50565b600081359050610a7781610a51565b92915050565b600060208284031215610a9357610a92610a4c565b5b6000610aa184828501610a68565b91505092915050565b610ab381610a10565b8114610abe57600080fd5b50565b600081359050610ad081610aaa565b92915050565b60008060408385031215610aed57610aec610a4c565b5b6000610afb85828601610ac1565b9250506020610b0c85828601610ac1565b9150509250929050565b600060208284031215610b2c57610b2b610a4c565b5b6000610b3a84828501610ac1565b91505092915050565b600082825260208201905092915050565b7f56463a204944454e544943414c5f414444524553534553000000000000000000600082015250565b6000610b8a601783610b43565b9150610b9582610b54565b602082019050919050565b60006020820190508181036000830152610bb981610b7d565b9050919050565b7f56463a205a45524f5f4144445245535300000000000000000000000000000000600082015250565b6000610bf6601083610b43565b9150610c0182610bc0565b602082019050919050565b60006020820190508181036000830152610c2581610be9565b9050919050565b7f56463a205641554c545f45584953545300000000000000000000000000000000600082015250565b6000610c62601083610b43565b9150610c6d82610c2c565b602082019050919050565b60006020820190508181036000830152610c9181610c55565b9050919050565b6000604082019050610cad6000830185610a22565b610cba6020830184610a22565b9392505050565b7f4e487b7100000000000000000000000000000000000000000000000000000000600052601160045260246000fd5b6000610cfb826109bc565b9150610d06836109bc565b9250828203905081811115610d1e57610d1d610cc1565b5b92915050565b6000604082019050610d396000830185610a22565b610d4660208301846109c6565b939250505056fe60c06040526001600955601e600e5534801561001a57600080fd5b506040516149c83803806149c8833981810160405281019061003c9190610404565b336040518060400160405280601581526020017f4c697175696469747920506f736974696f6e20563200000000000000000000008152506040518060400160405280600481526020017f4c5056320000000000000000000000000000000000000000000000000000000081525081600090816100b89190610694565b5080600190816100c89190610694565b505050600073ffffffffffffffffffffffffffffffffffffffff168173ffffffffffffffffffffffffffffffffffffffff160361013d5760006040517f1e4fbdf70000000000000000000000000000000000000000000000000000000081526004016101349190610775565b60405180910390fd5b61014c816102db60201b60201c565b506001600781905550600073ffffffffffffffffffffffffffffffffffffffff168273ffffffffffffffffffffffffffffffffffffffff16141580156101bf5750600073ffffffffffffffffffffffffffffffffffffffff168173ffffffffffffffffffffffffffffffffffffffff1614155b6101fe576040517f08c379a00000000000000000000000000000000000000000000000000000000081526004016101f5906107ed565b60405180910390fd5b8073ffffffffffffffffffffffffffffffffffffffff168273ffffffffffffffffffffffffffffffffffffffff161061026c576040517f08c379a000000000000000000000000000000000000000000000000000000000815260040161026390610859565b60405180910390fd5b8173ffffffffffffffffffffffffffffffffffffffff1660808173ffffffffffffffffffffffffffffffffffffffff16815250508073ffffffffffffffffffffffffffffffffffffffff1660a08173ffffffffffffffffffffffffffffffffffffffff16815250505050610879565b6000600660009054906101000a900473ffffffffffffffffffffffffffffffffffffffff16905081600660006101000a81548173ffffffffffffffffffffffffffffffffffffffff021916908373ffffffffffffffffffffffffffffffffffffffff1602179055508173ffffffffffffffffffffffffffffffffffffffff168173ffffffffffffffffffffffffffffffffffffffff167f8be0079c531659141344cd1fd0a4f28419497f9722a3daafe3b4186f6b6457e060405160405180910390a35050565b600080fd5b600073ffffffffffffffffffffffffffffffffffffffff82169050919050565b60006103d1826103a6565b9050919050565b6103e1816103c6565b81146103ec57600080fd5b50565b6000815190506103fe816103d8565b92915050565b6000806040838503121561041b5761041a6103a1565b5b6000610429858286016103ef565b925050602061043a858286016103ef565b9150509250929050565b600081519050919050565b7f4e487b7100000000000000000000000000000000000000000000000000000000600052604160045260246000fd5b7f4e487b7100000000000000000000000000000000000000000000000000000000600052602260045260246000fd5b600060028204905060018216806104c557607f821691505b6020821081036104d8576104d761047e565b5b50919050565b60008190508160005260206000209050919050565b60006020601f8301049050919050565b600082821b905092915050565b6000600883026105407fffffffffffffffffffffffffffffffffffffffffffffffffffffffffffffffff82610503565b61054a8683610503565b95508019841693508086168417925050509392505050565b6000819050919050565b6000819050919050565b600061059161058c61058784610562565b61056c565b610562565b9050919050565b6000819050919050565b6105ab83610576565b6105bf6105b782610598565b848454610510565b825550505050565b600090565b6105d46105c7565b6105df8184846105a2565b505050565b5b81811015610603576105f86000826105cc565b6001810190506105e5565b5050565b601f82111561064857610619816104de565b610622846104f3565b81016020851015610631578190505b61064561063d856104f3565b8301826105e4565b50505b505050565b600082821c905092915050565b600061066b6000198460080261064d565b1980831691505092915050565b6000610684838361065a565b9150826002028217905092915050565b61069d82610444565b67ffffffffffffffff8111156106b6576106b561044f565b5b6106c082546104ad565b6106cb828285610607565b600060209050601f8311600181146106fe57600084156106ec578287015190505b6106f68582610678565b86555061075e565b601f19841661070c866104de565b60005b828110156107345784890151825560018201915060208501945060208101905061070f565b86831015610751578489015161074d601f89168261065a565b8355505b6001600288020188555050505b505050505050565b61076f816103c6565b82525050565b600060208201905061078a6000830184610766565b92915050565b600082825260208201905092915050565b7f496e76616c696420746f6b656e73000000000000000000000000000000000000600082015250565b60006107d7600e83610790565b91506107e2826107a1565b602082019050919050565b60006020820190508181036000830152610806816107ca565b9050919050565b7f546f6b656e20616464726573736573206d75737420626520736f727465640000600082015250565b6000610843601e83610790565b915061084e8261080d565b602082019050919050565b6000602082019050818103600083015261087281610836565b9050919050565b60805160a0516140dd6108eb600039600081816108130152818161086901528181610fed0152818161168001528181611829015261233d015260008181610791015281816107bd015281816108bf01528181610a8401528181610f42015281816115d7015261229401526140dd6000f3fe608060405234801561001057600080fd5b50600436106101da5760003560e01c80637b84fda511610104578063b88d4fde116100a2578063d73792a911610071578063d73792a91461054a578063e985e9c514610568578063eb02c30114610598578063f2fde38b146105cd576101da565b8063b88d4fde146104c2578063c87b56dd146104de578063cf78756b1461050e578063d21220a71461052c576101da565b806399fbab88116100de57806399fbab88146104375780639da120961461046c578063a126d6011461048a578063a22cb465146104a6576101da565b80637b84fda5146103df5780638da5cb5b146103fb57806395d89b4114610419576101da565b80633012b05c1161017c57806350e0f5b71161014b57806350e0f5b7146103575780636352211e1461037557806370a08231146103a5578063715018a6146103d5576101da565b80633012b05c146102cf57806335c4b49e146102ff5780633a04801d1461031d57806342842e0e1461033b576101da565b8063095ea7b3116101b8578063095ea7b31461025d5780630dfe168114610279578063232174c01461029757806323b872dd146102b3576101da565b806301ffc9a7146101df57806306fdde031461020f578063081812fc1461022d575b600080fd5b6101f960048036038101906101f49190612f62565b6105e9565b6040516102069190612faa565b60405180910390f35b6102176106cb565b6040516102249190613055565b60405180910390f35b610247600480360381019061024291906130ad565b61075d565b604051610254919061311b565b60405180910390f35b61027760048036038101906102729190613162565b610779565b005b61028161078f565b60405161028e919061311b565b60405180910390f35b6102b160048036038101906102ac91906132d7565b6107b3565b005b6102cd60048036038101906102c8919061336e565b610dc2565b005b6102e960048036038101906102e491906133c1565b610ec4565b6040516102f69190613410565b60405180910390f35b6103076111b1565b6040516103149190613410565b60405180910390f35b6103256111b7565b6040516103329190613410565b60405180910390f35b6103556004803603810190610350919061336e565b6111bd565b005b61035f6111dd565b60405161036c9190613410565b60405180910390f35b61038f600480360381019061038a91906130ad565b6111e3565b60405161039c919061311b565b60405180910390f35b6103bf60048036038101906103ba919061342b565b6111f5565b6040516103cc9190613410565b60405180910390f35b6103dd6112af565b005b6103f960048036038101906103f491906130ad565b6112c3565b005b610403611350565b604051610410919061311b565b60405180910390f35b61042161137a565b60405161042e9190613055565b60405180910390f35b610451600480360381019061044c91906130ad565b61140c565b60405161046396959493929190613458565b60405180910390f35b610474611448565b6040516104819190613410565b60405180910390f35b6104a4600480360381019061049f91906130ad565b61144e565b005b6104c060048036038101906104bb91906134e5565b61177d565b005b6104dc60048036038101906104d79190613525565b611793565b005b6104f860048036038101906104f391906130ad565b6117b8565b6040516105059190613055565b60405180910390f35b610516611821565b6040516105239190613410565b60405180910390f35b610534611827565b604051610541919061311b565b60405180910390f35b61055261184b565b60405161055f9190613410565b60405180910390f35b610582600480360381019061057d91906135a8565b611851565b60405161058f9190612faa565b60405180910390f35b6105b260048036038101906105ad91906130ad565b6118e5565b6040516105c496959493929190613458565b60405180910390f35b6105e760048036038101906105e2919061342b565b611963565b005b60007f80ac58cd000000000000000000000000000000000000000000000000000000007bffffffffffffffffffffffffffffffffffffffffffffffffffffffff1916827bffffffffffffffffffffffffffffffffffffffffffffffffffffffff191614806106b457507f5b5e139f000000000000000000000000000000000000000000000000000000007bffffffffffffffffffffffffffffffffffffffffffffffffffffffff1916827bffffffffffffffffffffffffffffffffffffffffffffffffffffffff1916145b806106c457506106c3826119e9565b5b9050919050565b6060600080546106da90613617565b80601f016020809104026020016040519081016040528092919081815260200182805461070690613617565b80156107535780601f1061072857610100808354040283529160200191610753565b820191906000526020600020905b81548152906001019060200180831161073657829003601f168201915b5050505050905090565b600061076882611a53565b5061077282611adb565b9050919050565b61078b8282610786611b18565b611b20565b5050565b7f000000000000000000000000000000000000000000000000000000000000000081565b6107bb611b32565b7f000000000000000000000000000000000000000000000000000000000000000073ffffffffffffffffffffffffffffffffffffffff168573ffffffffffffffffffffffffffffffffffffffff1614801561086157507f000000000000000000000000000000000000000000000000000000000000000073ffffffffffffffffffffffffffffffffffffffff168473ffffffffffffffffffffffffffffffffffffffff16145b8061090e57507f000000000000000000000000000000000000000000000000000000000000000073ffffffffffffffffffffffffffffffffffffffff168573ffffffffffffffffffffffffffffffffffffffff1614801561090d57507f000000000000000000000000000000000000000000000000000000000000000073ffffffffffffffffffffffffffffffffffffffff168473ffffffffffffffffffffffffffffffffffffffff16145b5b61094d576040517f08c379a000000000000000000000000000000000000000000000000000000000815260040161094490613694565b60405180910390fd5b60006040518061018001604052808773ffffffffffffffffffffffffffffffffffffffff1681526020018673ffffffffffffffffffffffffffffffffffffffff1681526020013373ffffffffffffffffffffffffffffffffffffffff168152602001858152602001848152602001610e10426109c991906136e3565b63ffffffff1681526020016000801b8152602001600081526020016000801b81526020016000151581526020016000801b81526020016000801b8152509050610a128183611b78565b610a51576040517f08c379a0000000000000000000000000000000000000000000000000000000008152600401610a4890613763565b60405180910390fd5b6000612710600e5486610a649190613783565b610a6e91906137f4565b905060008186610a7e9190613825565b905060007f000000000000000000000000000000000000000000000000000000000000000073ffffffffffffffffffffffffffffffffffffffff168973ffffffffffffffffffffffffffffffffffffffff1603610b9957610ae482600a54600b54611c61565b905085811015610b29576040517f08c379a0000000000000000000000000000000000000000000000000000000008152600401610b20906138a5565b60405180910390fd5b600a54670de0b6b3a764000084610b409190613783565b610b4a91906137f4565b600c6000828254610b5b91906136e3565b9250508190555086600a6000828254610b7491906136e3565b9250508190555080600b6000828254610b8d9190613825565b92505081905550610c59565b610ba882600b54600a54611c61565b905085811015610bed576040517f08c379a0000000000000000000000000000000000000000000000000000000008152600401610be4906138a5565b60405180910390fd5b600b54670de0b6b3a764000084610c049190613783565b610c0e91906137f4565b600d6000828254610c1f91906136e3565b9250508190555086600b6000828254610c3891906136e3565b9250508190555080600a6000828254610c519190613825565b925050819055505b8873ffffffffffffffffffffffffffffffffffffffff166323b872dd33308a6040518463ffffffff1660e01b8152600401610c96939291906138c5565b6020604051808303816000875af1158015610cb5573d6000803e3d6000fd5b505050506040513d601f19601f82011682018060405250810190610cd99190613911565b508773ffffffffffffffffffffffffffffffffffffffff1663a9059cbb33836040518363ffffffff1660e01b8152600401610d1592919061393e565b6020604051808303816000875af1158015610d34573d6000803e3d6000fd5b505050506040513d601f19601f82011682018060405250810190610d589190613911565b503373ffffffffffffffffffffffffffffffffffffffff167fad671c9d50262b75ba17bdf7e330ae0d7da971800b2526584a85f83d23296b158a8a8a8588604051610da7959493929190613967565b60405180910390a250505050610dbb611c99565b5050505050565b600073ffffffffffffffffffffffffffffffffffffffff168273ffffffffffffffffffffffffffffffffffffffff1603610e345760006040517f64a0ae92000000000000000000000000000000000000000000000000000000008152600401610e2b919061311b565b60405180910390fd5b6000610e488383610e43611b18565b611ca3565b90508373ffffffffffffffffffffffffffffffffffffffff168173ffffffffffffffffffffffffffffffffffffffff1614610ebe578382826040517f64283d7b000000000000000000000000000000000000000000000000000000008152600401610eb5939291906139ba565b60405180910390fd5b50505050565b6000610ece611b32565b6000831180610edd5750600082115b610f1c576040517f08c379a0000000000000000000000000000000000000000000000000000000008152600401610f1390613a3d565b60405180910390fd5b600060096000815480929190610f3190613a5d565b9190505590506000841115610fe2577f000000000000000000000000000000000000000000000000000000000000000073ffffffffffffffffffffffffffffffffffffffff166323b872dd3330876040518463ffffffff1660e01b8152600401610f9d939291906138c5565b6020604051808303816000875af1158015610fbc573d6000803e3d6000fd5b505050506040513d601f19601f82011682018060405250810190610fe09190613911565b505b600083111561108d577f000000000000000000000000000000000000000000000000000000000000000073ffffffffffffffffffffffffffffffffffffffff166323b872dd3330866040518463ffffffff1660e01b8152600401611048939291906138c5565b6020604051808303816000875af1158015611067573d6000803e3d6000fd5b505050506040513d601f19601f8201168201806040525081019061108b9190613911565b505b6040518060c001604052808581526020018481526020016000815260200160008152602001600c548152602001600d5481525060086000838152602001908152602001600020600082015181600001556020820151816001015560408201518160020155606082015181600301556080820151816004015560a0820151816005015590505083600a600082825461112491906136e3565b9250508190555082600b600082825461113d91906136e3565b9250508190555061114e3382611ebd565b803373ffffffffffffffffffffffffffffffffffffffff167f4ca7a949faea3991220c7d0e8f0c046ff68acb12d1a6052bec5b2fd036c724fc8686604051611197929190613aa5565b60405180910390a3809150506111ab611c99565b92915050565b600b5481565b600e5481565b6111d883838360405180602001604052806000815250611793565b505050565b600a5481565b60006111ee82611a53565b9050919050565b60008073ffffffffffffffffffffffffffffffffffffffff168273ffffffffffffffffffffffffffffffffffffffff16036112685760006040517f89c62b6400000000000000000000000000000000000000000000000000000000815260040161125f919061311b565b60405180910390fd5b600360008373ffffffffffffffffffffffffffffffffffffffff1673ffffffffffffffffffffffffffffffffffffffff168152602001908152602001600020549050919050565b6112b7611fb6565b6112c1600061203d565b565b6112cb611fb6565b606481111561130f576040517f08c379a000000000000000000000000000000000000000000000000000000000815260040161130690613b1a565b60405180910390fd5b80600e819055507f208f1b468d3d61f0f085e975bd9d04367c930d599642faad06695229f3eadcd8816040516113459190613410565b60405180910390a150565b6000600660009054906101000a900473ffffffffffffffffffffffffffffffffffffffff16905090565b60606001805461138990613617565b80601f01602080910402602001604051908101604052809291908181526020018280546113b590613617565b80156114025780601f106113d757610100808354040283529160200191611402565b820191906000526020600020905b8154815290600101906020018083116113e557829003601f168201915b5050505050905090565b60086020528060005260406000206000915090508060000154908060010154908060020154908060030154908060040154908060050154905086565b600c5481565b611456611b32565b6114603382612103565b61149f576040517f08c379a000000000000000000000000000000000000000000000000000000000815260040161149690613b86565b60405180910390fd5b6000600860008381526020019081526020016000206000015411806114da575060006008600083815260200190815260200160002060010154115b611519576040517f08c379a000000000000000000000000000000000000000000000000000000000815260040161151090613bf2565b60405180910390fd5b600060086000838152602001908152602001600020905060008160000154905060008260010154905061154b84612199565b81600a600082825461155d9190613825565b9250508190555080600b60008282546115769190613825565b92505081905550600860008581526020019081526020016000206000808201600090556001820160009055600282016000905560038201600090556004820160009055600582016000905550506115cc84612423565b6000821115611675577f000000000000000000000000000000000000000000000000000000000000000073ffffffffffffffffffffffffffffffffffffffff1663a9059cbb33846040518363ffffffff1660e01b815260040161163092919061393e565b6020604051808303816000875af115801561164f573d6000803e3d6000fd5b505050506040513d601f19601f820116820180604052508101906116739190613911565b505b600081111561171e577f000000000000000000000000000000000000000000000000000000000000000073ffffffffffffffffffffffffffffffffffffffff1663a9059cbb33836040518363ffffffff1660e01b81526004016116d992919061393e565b6020604051808303816000875af11580156116f8573d6000803e3d6000fd5b505050506040513d601f19601f8201168201806040525081019061171c9190613911565b505b833373ffffffffffffffffffffffffffffffffffffffff167fa83f389ef7a9085e50e5689eb7ad9d3e0f0e6bdb4c08ed7d5da097665b1a7c838484604051611767929190613aa5565b60405180910390a350505061177a611c99565b50565b61178f611788611b18565b83836124a9565b5050565b61179e848484610dc2565b6117b26117a9611b18565b85858585612618565b50505050565b60606117c382611a53565b5060006117ce6127c9565b905060008151116117ee5760405180602001604052806000815250611819565b806117f8846127e0565b604051602001611809929190613c4e565b6040516020818303038152906040525b915050919050565b600d5481565b7f000000000000000000000000000000000000000000000000000000000000000081565b61271081565b6000600560008473ffffffffffffffffffffffffffffffffffffffff1673ffffffffffffffffffffffffffffffffffffffff16815260200190815260200160002060008373ffffffffffffffffffffffffffffffffffffffff1673ffffffffffffffffffffffffffffffffffffffff16815260200190815260200160002060009054906101000a900460ff16905092915050565b600080600080600080600060086000898152602001908152602001600020905061191f81600001548260040154600c5484600201546128ae565b925061193b81600101548260050154600d5484600301546128ae565b9150806000015481600101548260020154836003015496509650965096505091939550919395565b61196b611fb6565b600073ffffffffffffffffffffffffffffffffffffffff168173ffffffffffffffffffffffffffffffffffffffff16036119dd5760006040517f1e4fbdf70000000000000000000000000000000000000000000000000000000081526004016119d4919061311b565b60405180910390fd5b6119e68161203d565b50565b60007f01ffc9a7000000000000000000000000000000000000000000000000000000007bffffffffffffffffffffffffffffffffffffffffffffffffffffffff1916827bffffffffffffffffffffffffffffffffffffffffffffffffffffffff1916149050919050565b600080611a5f836128ef565b9050600073ffffffffffffffffffffffffffffffffffffffff168173ffffffffffffffffffffffffffffffffffffffff1603611ad257826040517f7e273289000000000000000000000000000000000000000000000000000000008152600401611ac99190613410565b60405180910390fd5b80915050919050565b60006004600083815260200190815260200160002060009054906101000a900473ffffffffffffffffffffffffffffffffffffffff169050919050565b600033905090565b611b2d838383600161292c565b505050565b600260075403611b6e576040517f3ee5aeb500000000000000000000000000000000000000000000000000000000815260040160405180910390fd5b6002600781905550565b600080836000015184602001518560400151866060015187608001518860a001518960c001518a60e001518b61010001518c61012001518d61014001518e6101600151604051602001611bd69c9b9a99989796959493929190613d09565b604051602081830303815290604052805190602001209050600081604051602001611c019190613e30565b6040516020818303038152906040528051906020012090506000611c258286612af1565b90503373ffffffffffffffffffffffffffffffffffffffff168173ffffffffffffffffffffffffffffffffffffffff1614935050505092915050565b6000808285611c709190613783565b905060008585611c8091906136e3565b90508082611c8e91906137f4565b925050509392505050565b6001600781905550565b600080611caf846128ef565b9050600073ffffffffffffffffffffffffffffffffffffffff168373ffffffffffffffffffffffffffffffffffffffff1614611cf157611cf0818486612c1e565b5b600073ffffffffffffffffffffffffffffffffffffffff168173ffffffffffffffffffffffffffffffffffffffff1614611d8257611d3360008560008061292c565b6001600360008373ffffffffffffffffffffffffffffffffffffffff1673ffffffffffffffffffffffffffffffffffffffff168152602001908152602001600020600082825403925050819055505b600073ffffffffffffffffffffffffffffffffffffffff168573ffffffffffffffffffffffffffffffffffffffff1614611e05576001600360008773ffffffffffffffffffffffffffffffffffffffff1673ffffffffffffffffffffffffffffffffffffffff168152602001908152602001600020600082825401925050819055505b846002600086815260200190815260200160002060006101000a81548173ffffffffffffffffffffffffffffffffffffffff021916908373ffffffffffffffffffffffffffffffffffffffff160217905550838573ffffffffffffffffffffffffffffffffffffffff168273ffffffffffffffffffffffffffffffffffffffff167fddf252ad1be2c89b69c2b068fc378daa952ba7f163c4a11628f55a4df523b3ef60405160405180910390a4809150509392505050565b600073ffffffffffffffffffffffffffffffffffffffff168273ffffffffffffffffffffffffffffffffffffffff1603611f2f5760006040517f64a0ae92000000000000000000000000000000000000000000000000000000008152600401611f26919061311b565b60405180910390fd5b6000611f3d83836000611ca3565b9050600073ffffffffffffffffffffffffffffffffffffffff168173ffffffffffffffffffffffffffffffffffffffff1614611fb15760006040517f73c6ac6e000000000000000000000000000000000000000000000000000000008152600401611fa8919061311b565b60405180910390fd5b505050565b611fbe611b18565b73ffffffffffffffffffffffffffffffffffffffff16611fdc611350565b73ffffffffffffffffffffffffffffffffffffffff161461203b57611fff611b18565b6040517f118cdaa7000000000000000000000000000000000000000000000000000000008152600401612032919061311b565b60405180910390fd5b565b6000600660009054906101000a900473ffffffffffffffffffffffffffffffffffffffff16905081600660006101000a81548173ffffffffffffffffffffffffffffffffffffffff021916908373ffffffffffffffffffffffffffffffffffffffff1602179055508173ffffffffffffffffffffffffffffffffffffffff168173ffffffffffffffffffffffffffffffffffffffff167f8be0079c531659141344cd1fd0a4f28419497f9722a3daafe3b4186f6b6457e060405160405180910390a35050565b600061210d611350565b73ffffffffffffffffffffffffffffffffffffffff168373ffffffffffffffffffffffffffffffffffffffff161480612153575061215261214c611350565b84611851565b5b8061219157508273ffffffffffffffffffffffffffffffffffffffff166121798361075d565b73ffffffffffffffffffffffffffffffffffffffff16145b905092915050565b6121a1611b32565b6121ab3382612103565b6121ea576040517f08c379a00000000000000000000000000000000000000000000000000000000081526004016121e190613b86565b60405180910390fd5b6000600860008381526020019081526020016000209050600061221d82600001548360040154600c5485600201546128ae565b9050600061223b83600101548460050154600d5486600301546128ae565b90508183600201600082825461225191906136e3565b925050819055508083600301600082825461226c91906136e3565b92505081905550600c548360040181905550600d5483600501819055506000821115612332577f000000000000000000000000000000000000000000000000000000000000000073ffffffffffffffffffffffffffffffffffffffff1663a9059cbb33846040518363ffffffff1660e01b81526004016122ed92919061393e565b6020604051808303816000875af115801561230c573d6000803e3d6000fd5b505050506040513d601f19601f820116820180604052508101906123309190613911565b505b60008111156123db577f000000000000000000000000000000000000000000000000000000000000000073ffffffffffffffffffffffffffffffffffffffff1663a9059cbb33836040518363ffffffff1660e01b815260040161239692919061393e565b6020604051808303816000875af11580156123b5573d6000803e3d6000fd5b505050506040513d601f19601f820116820180604052508101906123d99190613911565b505b837fa54e6c2fc0861aa9c991b26891d71059d517983b9e84b91020f42609c452eb9d838360405161240d929190613aa5565b60405180910390a2505050612420611c99565b50565b60006124326000836000611ca3565b9050600073ffffffffffffffffffffffffffffffffffffffff168173ffffffffffffffffffffffffffffffffffffffff16036124a557816040517f7e27328900000000000000000000000000000000000000000000000000000000815260040161249c9190613410565b60405180910390fd5b5050565b600073ffffffffffffffffffffffffffffffffffffffff168273ffffffffffffffffffffffffffffffffffffffff160361251a57816040517f5b08ba18000000000000000000000000000000000000000000000000000000008152600401612511919061311b565b60405180910390fd5b80600560008573ffffffffffffffffffffffffffffffffffffffff1673ffffffffffffffffffffffffffffffffffffffff16815260200190815260200160002060008473ffffffffffffffffffffffffffffffffffffffff1673ffffffffffffffffffffffffffffffffffffffff16815260200190815260200160002060006101000a81548160ff0219169083151502179055508173ffffffffffffffffffffffffffffffffffffffff168373ffffffffffffffffffffffffffffffffffffffff167f17307eab39ab6107e8899845ad3d59bd9653f200f220920489ca2b5937696c318360405161260b9190612faa565b60405180910390a3505050565b60008373ffffffffffffffffffffffffffffffffffffffff163b11156127c2578273ffffffffffffffffffffffffffffffffffffffff1663150b7a02868685856040518563ffffffff1660e01b81526004016126779493929190613eab565b6020604051808303816000875af19250505080156126b357506040513d601f19601f820116820180604052508101906126b09190613f0c565b60015b612737573d80600081146126e3576040519150601f19603f3d011682016040523d82523d6000602084013e6126e8565b606091505b50600081510361272f57836040517f64a0ae92000000000000000000000000000000000000000000000000000000008152600401612726919061311b565b60405180910390fd5b805181602001fd5b63150b7a0260e01b7bffffffffffffffffffffffffffffffffffffffffffffffffffffffff1916817bffffffffffffffffffffffffffffffffffffffffffffffffffffffff1916146127c057836040517f64a0ae920000000000000000000000000000000000000000000000000000000081526004016127b7919061311b565b60405180910390fd5b505b5050505050565b606060405180602001604052806000815250905090565b6060600060016127ef84612ce2565b01905060008167ffffffffffffffff81111561280e5761280d6131ac565b5b6040519080825280601f01601f1916602001820160405280156128405781602001600182028036833780820191505090505b509050600082602001820190505b6001156128a3578080600190039150507f3031323334353637383961626364656600000000000000000000000000000000600a86061a8153600a8581612897576128966137c5565b5b0494506000850361284e575b819350505050919050565b600081670de0b6b3a764000085856128c69190613825565b876128d19190613783565b6128db91906137f4565b6128e59190613825565b9050949350505050565b60006002600083815260200190815260200160002060009054906101000a900473ffffffffffffffffffffffffffffffffffffffff169050919050565b80806129655750600073ffffffffffffffffffffffffffffffffffffffff168273ffffffffffffffffffffffffffffffffffffffff1614155b15612a9957600061297584611a53565b9050600073ffffffffffffffffffffffffffffffffffffffff168373ffffffffffffffffffffffffffffffffffffffff16141580156129e057508273ffffffffffffffffffffffffffffffffffffffff168173ffffffffffffffffffffffffffffffffffffffff1614155b80156129f357506129f18184611851565b155b15612a3557826040517fa9fbf51f000000000000000000000000000000000000000000000000000000008152600401612a2c919061311b565b60405180910390fd5b8115612a9757838573ffffffffffffffffffffffffffffffffffffffff168273ffffffffffffffffffffffffffffffffffffffff167f8c5be1e5ebec7d5bd14f71427d1e84f3dd0314c0f7b2291e5b200ac8c7c3b92560405160405180910390a45b505b836004600085815260200190815260200160002060006101000a81548173ffffffffffffffffffffffffffffffffffffffff021916908373ffffffffffffffffffffffffffffffffffffffff16021790555050505050565b60006041825114612b37576040517f08c379a0000000000000000000000000000000000000000000000000000000008152600401612b2e90613f85565b60405180910390fd5b60008060006020850151925060408501519150606085015160001a9050601b8160ff161015612b7057601b81612b6d9190613fb2565b90505b601b8160ff161480612b855750601c8160ff16145b612bc4576040517f08c379a0000000000000000000000000000000000000000000000000000000008152600401612bbb90614033565b60405180910390fd5b60018682858560405160008152602001604052604051612be79493929190614062565b6020604051602081039080840390855afa158015612c09573d6000803e3d6000fd5b50505060206040510351935050505092915050565b612c29838383612e35565b612cdd57600073ffffffffffffffffffffffffffffffffffffffff168373ffffffffffffffffffffffffffffffffffffffff1603612c9e57806040517f7e273289000000000000000000000000000000000000000000000000000000008152600401612c959190613410565b60405180910390fd5b81816040517f177e802f000000000000000000000000000000000000000000000000000000008152600401612cd492919061393e565b60405180910390fd5b505050565b600080600090507a184f03e93ff9f4daa797ed6e38ed64bf6a1f0100000000000000008310612d40577a184f03e93ff9f4daa797ed6e38ed64bf6a1f0100000000000000008381612d3657612d356137c5565b5b0492506040810190505b6d04ee2d6d415b85acef81000000008310612d7d576d04ee2d6d415b85acef81000000008381612d7357612d726137c5565b5b0492506020810190505b662386f26fc100008310612dac57662386f26fc100008381612da257612da16137c5565b5b0492506010810190505b6305f5e1008310612dd5576305f5e1008381612dcb57612dca6137c5565b5b0492506008810190505b6127108310612dfa576127108381612df057612def6137c5565b5b0492506004810190505b60648310612e1d5760648381612e1357612e126137c5565b5b0492506002810190505b600a8310612e2c576001810190505b80915050919050565b60008073ffffffffffffffffffffffffffffffffffffffff168373ffffffffffffffffffffffffffffffffffffffff1614158015612eed57508273ffffffffffffffffffffffffffffffffffffffff168473ffffffffffffffffffffffffffffffffffffffff161480612eae5750612ead8484611851565b5b80612eec57508273ffffffffffffffffffffffffffffffffffffffff16612ed483611adb565b73ffffffffffffffffffffffffffffffffffffffff16145b5b90509392505050565b6000604051905090565b600080fd5b600080fd5b60007fffffffff0000000000000000000000000000000000000000000000000000000082169050919050565b612f3f81612f0a565b8114612f4a57600080fd5b50565b600081359050612f5c81612f36565b92915050565b600060208284031215612f7857612f77612f00565b5b6000612f8684828501612f4d565b91505092915050565b60008115159050919050565b612fa481612f8f565b82525050565b6000602082019050612fbf6000830184612f9b565b92915050565b600081519050919050565b600082825260208201905092915050565b60005b83811015612fff578082015181840152602081019050612fe4565b60008484015250505050565b6000601f19601f8301169050919050565b600061302782612fc5565b6130318185612fd0565b9350613041818560208601612fe1565b61304a8161300b565b840191505092915050565b6000602082019050818103600083015261306f818461301c565b905092915050565b6000819050919050565b61308a81613077565b811461309557600080fd5b50565b6000813590506130a781613081565b92915050565b6000602082840312156130c3576130c2612f00565b5b60006130d184828501613098565b91505092915050565b600073ffffffffffffffffffffffffffffffffffffffff82169050919050565b6000613105826130da565b9050919050565b613115816130fa565b82525050565b6000602082019050613130600083018461310c565b92915050565b61313f816130fa565b811461314a57600080fd5b50565b60008135905061315c81613136565b92915050565b6000806040838503121561317957613178612f00565b5b60006131878582860161314d565b925050602061319885828601613098565b9150509250929050565b600080fd5b600080fd5b7f4e487b7100000000000000000000000000000000000000000000000000000000600052604160045260246000fd5b6131e48261300b565b810181811067ffffffffffffffff82111715613203576132026131ac565b5b80604052505050565b6000613216612ef6565b905061322282826131db565b919050565b600067ffffffffffffffff821115613242576132416131ac565b5b61324b8261300b565b9050602081019050919050565b82818337600083830152505050565b600061327a61327584613227565b61320c565b905082815260208101848484011115613296576132956131a7565b5b6132a1848285613258565b509392505050565b600082601f8301126132be576132bd6131a2565b5b81356132ce848260208601613267565b91505092915050565b600080600080600060a086880312156132f3576132f2612f00565b5b60006133018882890161314d565b95505060206133128882890161314d565b945050604061332388828901613098565b935050606061333488828901613098565b925050608086013567ffffffffffffffff81111561335557613354612f05565b5b613361888289016132a9565b9150509295509295909350565b60008060006060848603121561338757613386612f00565b5b60006133958682870161314d565b93505060206133a68682870161314d565b92505060406133b786828701613098565b9150509250925092565b600080604083850312156133d8576133d7612f00565b5b60006133e685828601613098565b92505060206133f785828601613098565b9150509250929050565b61340a81613077565b82525050565b60006020820190506134256000830184613401565b92915050565b60006020828403121561344157613440612f00565b5b600061344f8482850161314d565b91505092915050565b600060c08201905061346d6000830189613401565b61347a6020830188613401565b6134876040830187613401565b6134946060830186613401565b6134a16080830185613401565b6134ae60a0830184613401565b979650505050505050565b6134c281612f8f565b81146134cd57600080fd5b50565b6000813590506134df816134b9565b92915050565b600080604083850312156134fc576134fb612f00565b5b600061350a8582860161314d565b925050602061351b858286016134d0565b9150509250929050565b6000806000806080858703121561353f5761353e612f00565b5b600061354d8782880161314d565b945050602061355e8782880161314d565b935050604061356f87828801613098565b925050606085013567ffffffffffffffff8111156135905761358f612f05565b5b61359c878288016132a9565b91505092959194509250565b600080604083850312156135bf576135be612f00565b5b60006135cd8582860161314d565b92505060206135de8582860161314d565b9150509250929050565b7f4e487b7100000000000000000000000000000000000000000000000000000000600052602260045260246000fd5b6000600282049050600182168061362f57607f821691505b602082108103613642576136416135e8565b5b50919050565b7f496e76616c696420746f6b656e20706169720000000000000000000000000000600082015250565b600061367e601283612fd0565b915061368982613648565b602082019050919050565b600060208201905081810360008301526136ad81613671565b9050919050565b7f4e487b7100000000000000000000000000000000000000000000000000000000600052601160045260246000fd5b60006136ee82613077565b91506136f983613077565b9250828201905080821115613711576137106136b4565b5b92915050565b7f496e76616c6964207369676e6174757265000000000000000000000000000000600082015250565b600061374d601183612fd0565b915061375882613717565b602082019050919050565b6000602082019050818103600083015261377c81613740565b9050919050565b600061378e82613077565b915061379983613077565b92508282026137a781613077565b915082820484148315176137be576137bd6136b4565b5b5092915050565b7f4e487b7100000000000000000000000000000000000000000000000000000000600052601260045260246000fd5b60006137ff82613077565b915061380a83613077565b92508261381a576138196137c5565b5b828204905092915050565b600061383082613077565b915061383b83613077565b9250828203905081811115613853576138526136b4565b5b92915050565b7f496e73756666696369656e74206f757470757420616d6f756e74000000000000600082015250565b600061388f601a83612fd0565b915061389a82613859565b602082019050919050565b600060208201905081810360008301526138be81613882565b9050919050565b60006060820190506138da600083018661310c565b6138e7602083018561310c565b6138f46040830184613401565b949350505050565b60008151905061390b816134b9565b92915050565b60006020828403121561392757613926612f00565b5b6000613935848285016138fc565b91505092915050565b6000604082019050613953600083018561310c565b6139606020830184613401565b9392505050565b600060a08201905061397c600083018861310c565b613989602083018761310c565b6139966040830186613401565b6139a36060830185613401565b6139b06080830184613401565b9695505050505050565b60006060820190506139cf600083018661310c565b6139dc6020830185613401565b6139e9604083018461310c565b949350505050565b7f4d7573742070726f76696465206c697175696469747900000000000000000000600082015250565b6000613a27601683612fd0565b9150613a32826139f1565b602082019050919050565b60006020820190508181036000830152613a5681613a1a565b9050919050565b6000613a6882613077565b91507fffffffffffffffffffffffffffffffffffffffffffffffffffffffffffffffff8203613a9a57613a996136b4565b5b600182019050919050565b6000604082019050613aba6000830185613401565b613ac76020830184613401565b9392505050565b7f466565207261746520746f6f2068696768000000000000000000000000000000600082015250565b6000613b04601183612fd0565b9150613b0f82613ace565b602082019050919050565b60006020820190508181036000830152613b3381613af7565b9050919050565b7f4e6f7420617574686f72697a6564000000000000000000000000000000000000600082015250565b6000613b70600e83612fd0565b9150613b7b82613b3a565b602082019050919050565b60006020820190508181036000830152613b9f81613b63565b9050919050565b7f506f736974696f6e20646f6573206e6f74206578697374000000000000000000600082015250565b6000613bdc601783612fd0565b9150613be782613ba6565b602082019050919050565b60006020820190508181036000830152613c0b81613bcf565b9050919050565b600081905092915050565b6000613c2882612fc5565b613c328185613c12565b9350613c42818560208601612fe1565b80840191505092915050565b6000613c5a8285613c1d565b9150613c668284613c1d565b91508190509392505050565b6000819050919050565b6000613c97613c92613c8d846130da565b613c72565b6130da565b9050919050565b6000613ca982613c7c565b9050919050565b6000613cbb82613c9e565b9050919050565b613ccb81613cb0565b82525050565b600063ffffffff82169050919050565b613cea81613cd1565b82525050565b6000819050919050565b613d0381613cf0565b82525050565b600061018082019050613d1f600083018f613cc2565b613d2c602083018e613cc2565b613d39604083018d61310c565b613d46606083018c613401565b613d53608083018b613401565b613d6060a083018a613ce1565b613d6d60c0830189613cfa565b613d7a60e0830188613401565b613d88610100830187613cfa565b613d96610120830186612f9b565b613da4610140830185613cfa565b613db2610160830184613cfa565b9d9c50505050505050505050505050565b7f19457468657265756d205369676e6564204d6573736167653a0a333200000000600082015250565b6000613df9601c83613c12565b9150613e0482613dc3565b601c82019050919050565b6000819050919050565b613e2a613e2582613cf0565b613e0f565b82525050565b6000613e3b82613dec565b9150613e478284613e19565b60208201915081905092915050565b600081519050919050565b600082825260208201905092915050565b6000613e7d82613e56565b613e878185613e61565b9350613e97818560208601612fe1565b613ea08161300b565b840191505092915050565b6000608082019050613ec0600083018761310c565b613ecd602083018661310c565b613eda6040830185613401565b8181036060830152613eec8184613e72565b905095945050505050565b600081519050613f0681612f36565b92915050565b600060208284031215613f2257613f21612f00565b5b6000613f3084828501613ef7565b91505092915050565b7f496e76616c6964207369676e6174757265206c656e6774680000000000000000600082015250565b6000613f6f601883612fd0565b9150613f7a82613f39565b602082019050919050565b60006020820190508181036000830152613f9e81613f62565b9050919050565b600060ff82169050919050565b6000613fbd82613fa5565b9150613fc883613fa5565b9250828201905060ff811115613fe157613fe06136b4565b5b92915050565b7f496e76616c6964207369676e617475726520762076616c756500000000000000600082015250565b600061401d601983612fd0565b915061402882613fe7565b602082019050919050565b6000602082019050818103600083015261404c81614010565b9050919050565b61405c81613fa5565b82525050565b60006080820190506140776000830187613cfa565b6140846020830186614053565b6140916040830185613cfa565b61409e6060830184613cfa565b9594505050505056fea264697066735822122032bde492cd9cf67bfc42ab2c0b6aa5cc24ca8a0128e3dae12a15e3199b4ca17c64736f6c634300081c0033a26469706673582212208fb366c5b8b3d6e6bb291d2dfb656399010015a70c592a7c7bb41eff1fd6dbb464736f6c634300081c0033",
  "linkReferences": {},
  "deployedLinkReferences": {}
}